:102000002820002001210000FD200000FD2000000C
:1020100000000000000000000000000000000000C0
:10202000000000000000000000000000FD20000093
:102030000000000000000000FD200000FD20000066
:10204000FD200000FD200000FD200000FD2000001C
:1020500071220000FD200000FD200000FD20000096
:10206000FD200000FD200000FD200000FD200000FC
:10207000FD200000FD200000FD200000FD200000EC
:10208000FD200000FD200000FD200000FD200000DC
:10209000FD2000000000000000000000FD20000006
:1020A000FD200000FD200000FD200000FD200000BC
:1020B0000000000010B5064C2378002B07D1054B1B
:1020C000002B02D0044800E000BF0123237010BDA4
:1020D0000000002000000000EC250000044B10B5BB
:1020E000002B03D00349044800E000BF10BDC046E8
:1020F0000000000004000020EC250000FEE70000C6
:102100002148224970B50023884235D10021204B57
:10211000204A934235D3FF221F4B032193431F4A8A
:102120000C2593600222082430261D4B1D485A625C
:10213000C3788B431343C370C378AB432343C3704B
:10214000194B987BB0430600202030439873987B4E
:10215000A84304439C73987B884302439A7380236B
:10216000124A51680B435360114B9847114B9847E3
:10217000FEE7C458043314600F4CCA18A242F8D3C7
:10218000C4E702C3C5E7C046EC25000000000020FC
:1021900000000020280000200020000000ED00E0EA
:1021A000FC700041005000410048004100400041E7
:1021B00065250000E523000000000020024A537856
:1021C000DB09FCD17047C0460018004070B5194CBF
:1021D000194D0600A847A84723789B0703D5A847B1
:1021E00000232370A847A84701232370A84708238A
:1021F000626913436361A369104A1340A36180239A
:10220000A269DB011343A361A847022322780C498A
:102210001343237010230B4ACB67BFF34F8FBFF3D9
:102220006F8FC021490053501360074B00201E6080
:1022300070BDC04600180040BD210000FF8FFFFFA9
:1022400004E100E000E100E01C000020132805D0BC
:102250000D20404270479A601A6104E0034B082247
:102260000029F8D0DA600020F4E7C04600180040EA
:10227000F7B5224D22492B69EA68012613400193E4
:10228000019BB8222B611F4B76421868431E984170
:102290001D4BC0B29847019B002B18D1F7BD1B4BBB
:1022A000012000229C46674683185B10D9B2DB00F0
:1022B000DB5DA3421CD018DA0131CAB29042F2D2DF
:1022C000731C16D10122A240019B934301930198F4
:1022D0000F4B9847013844B2631CE0D12B69EA6880
:1022E00013400193019B2B61D5E70139C8B2E5E7A3
:1022F0001326044B30001B689847E3E700180040A2
:10230000B42500001C00002069230000AC2500005B
:1023100011250000064B1A7AD2B21A725A7AD2B23A
:102320005A729A7AD2B29A72DA7AD2B2DA72704762
:1023300000040040074B10B55A685A60064B984796
:10234000064B98470820064CA047064B9847F720B5
:10235000A04710BD0040004115230000712300007C
:10236000C1230000B1230000002800D100BE704747
:102370000D4B1A6A196A1201890F88070B49120D51
:1023800001431004014319620221986901439961D4
:102390001F210A401A770822D9681142FCD08022F6
:1023A000196A0A431A6270470008004002030000DD
:1023B0000221024A93698B439361704700080040F1
:1023C000C30709D58022054B52009A605A78D2097A
:1023D000FCD1832252025A607047C046000C004074
:1023E00070470000034B10B5984703491320034B77
:1023F0009847FEE705250000E1230000CD240000FA
:10240000104B114A10B55A80C0238022DB051203FD
:102410005A600E4B0E4A04209A620E4A9A621A00C3
:102420005332117839338143117001211078884378
:10243000014311700F211A780A401A70064B984711
:1024400010BDC046000C00400540000000440041A3
:1024500000000240080002C0A924000010B5024B91
:102460009847024B984710BD352300000124000017
:10247000F8B5012300221E00FF270A4D6C68934225
:1024800008D39918491005D1844204D12B68002B38
:1024900000D09847F8BD844201D33B00EFE73200FB
:1024A000EDE7C046200000200122054B524210B546
:1024B0005A60002203481A60034B984710BDC0467B
:1024C0002000002071240000CD2100000B4B10B52E
:1024D0005A6882420DD11960002908D11000084BBA
:1024E000984710BD1A68002A05D11960586001216B
:1024F000F5E70029F6D10D204042F2E72000002048
:102500004D22000010B5014B984710BD5D2400001E
:1025100010B50023002802D000F004F8431C180076
:1025200010BDC046414208401C2101231B049842B3
:1025300001D3000C10391B0A984201D3000A083954
:102540001B09984201D30009043902A2105C401A09
:102550007047C0461B1C1D1D1E1E1E1E1F1F1F1F59
:102560001F1F1F1F70B500260C4D0D4C641BA410BF
:10257000A64209D1002600F029F80A4D0A4C641B36
:10258000A410A64205D170BDB300EB5898470136A0
:10259000EEE7B300EB5898470136F2E7D825000084
:1025A000D8250000D8250000DC250000030000002D
:1025B000130000002E2E2F68706C2F6569632F6842
:1025C000706C5F6569632E6300000000F8B5C0465B
:1025D000F8BC08BC9E467047DD200000F8B5C04638
:0C25E000F8BC08BC9E467047B520000007
:0400000300002000D9
:00000001FF
