:1020000030200020512100004D2100004D21000012
:1020100000000000000000000000000000000000C0
:102020000000000000000000000000004D21000042
:1020300000000000000000004D2100004D210000C4
:102040004D2100004D2100004D2100004D210000D8
:10205000B52200004D2100004D2100004D2100005F
:102060004D2100004D2100004D2100004D210000B8
:102070004D2100004D2100004D2100004D210000A8
:102080004D2100004D2100004D2100004D21000098
:102090004D21000000000000000000004D21000064
:1020A0004D2100004D2100004D2100004D21000078
:1020B000000000000448054B10B5834203D0044BD8
:1020C000002B00D0984710BD042800000428000011
:1020D0000000000006480749091A8910CB0F59185B
:1020E00010B5491003D0044B002B00D0984710BD09
:1020F00004280000042800000000000010B5074C70
:102100002378002B09D1FFF7D5FF054B002B02D018
:10211000044800E000BF0123237010BD0000002030
:102120000000000004280000054B10B5002B03D070
:102130000449054800E000BFFFF7CCFF10BDC046D2
:10214000000000000400002004280000FEE700005A
:102150002148224970B50023884235D10021204B07
:10216000204A934235D3FF221F4B032193431F4A3A
:102170000C2593600222082430261D4B1D485A620C
:10218000C3788B431343C370C378AB432343C370FB
:10219000194B987BB0430600202030439873987BFE
:1021A000A84304439C73987B884302439A7380231B
:1021B000124A51680B435360114B9847114B984793
:1021C000FEE7C458043314600F4CCA18A242F8D377
:1021D000C4E702C3C5E7C046042800000000002091
:1021E000000000202C0000200020000000ED00E096
:1021F000FC70004100500041004800410040004197
:102200007D270000A124000000000020024A53782E
:10221000DB09FCD17047C04600180040F8B5174CE8
:10222000174D0700A847A84723789B0703D5A84761
:1022300000232370A847A84701232370A84700263E
:102240000823A670666063618023DB01A361E661F9
:10225000A847022322780B491343237010230A4A0C
:10226000CB67BFF34F8FBFF36F8FC021490053502F
:102270001360064B30001F60F8BDC04600180040D8
:102280000D22000004E100E000E100E01C0000205D
:10229000132805D00D20404270479A601A6104E06F
:1022A000034B08220029F8D0DA600020F4E7C0468A
:1022B00000180040F7B5224D22492B69EA68012633
:1022C00013400193019BD2222B611F4B7642186869
:1022D000431E98411D4BC0B29847019B002B18D15B
:1022E000F7BD1B4B012000229C46674683185B10FC
:1022F000D9B2DB00DB5DA3421CD018DA0131CAB2CF
:102300009042F2D2731C16D10122A240019B93434A
:10231000019301980F4B9847013844B2631CE0D1F8
:102320002B69EA6813400193019B2B61D5E70139C2
:10233000C8B2E5E71326044B30001B689847E3E773
:1023400000180040CC2700001C000020EF230000F4
:10235000C427000029270000044B10B51C68044B5B
:102360009847044B01002000984710BD2000002032
:10237000CD230000E9230000064B1A7AD2B21A726C
:102380005A7AD2B25A729A7AD2B29A72DA7AD2B2AD
:10239000DA72704700040040074B10B55A685A6063
:1023A000064B9847064B98470820064CA047064B1B
:1023B0009847F720A04710BD004000417923000056
:1023C000F9230000492400003924000003006420A0
:1023D000584310B5034B0230032198470A23584352
:1023E00010BDC046112600000139FDD870470028F5
:1023F00000D100BE704700000D4B1A6A196A120125
:10240000890F88070B49120D01431004014319621B
:1024100002219869014399611F210A401A77082215
:10242000D9681142FCD08022196A0A431A627047A7
:1024300000080040020300000221024A93698B4316
:102440009361704700080040C30709D58022054BFF
:1024500052009A605A78D209FCD1832252025A6003
:102460007047C046000C004070B5C025802604248B
:10247000ED05B602C820034B013C9847EE61002CE5
:10248000F8D170BD59230000BFF34F8F0423034AD6
:1024900011690B43136130BF7047C04600ED00E087
:1024A00010B5074B9847074B074913209847C0239F
:1024B0008022DB0592029A61044B9847FCE7C046F4
:1024C00005260000CD2500006924000089240000B5
:1024D000C0218020104B114A70B55A80104B114A10
:1024E000C905000348609A620F4A04249A621A00E0
:1024F00048605332157839332C43147048610121F8
:1025000010788843014311700F211A780A401A701D
:10251000064B984770BDC046000C004005400000C7
:102520000044004100000240080002C0A92500004C
:1025300010B50B4B9847C02280218020094BD20553
:102540008902C00591609862074898625161012133
:1025500051331A788A431A70044B984710BDC0460D
:102560009923000000440041020000C0D124000073
:10257000F8B5012300221E00FF270A4D6C68934224
:1025800008D39918491005D1844204D12B68002B37
:1025900000D09847F8BD844201D33B00EFE73200FA
:1025A000EDE7C046240000200122054B524210B541
:1025B0005A60002203481A60034B984710BDC0467A
:1025C00024000020712500001D2200000B4B10B5D7
:1025D0005A6882420DD11960002908D11000084BB9
:1025E000984710BD1A68002A05D11960586001216A
:1025F000F5E70029F6D10D204042F2E72400002043
:102600009122000010B5014B984710BD3125000004
:10261000002243088B4274D303098B425FD3030A21
:102620008B4244D3030B8B4228D3030C8B420DD334
:10263000FF22090212BA030C8B4202D312120902C2
:1026400065D0030B8B4219D300E0090AC30B8B4200
:1026500001D3CB03C01A5241830B8B4201D38B03AE
:10266000C01A5241430B8B4201D34B03C01A524153
:10267000030B8B4201D30B03C01A5241C30A8B4296
:1026800001D3CB02C01A5241830A8B4201D38B0281
:10269000C01A5241430A8B4201D34B02C01A524125
:1026A000030A8B4201D30B02C01A5241CDD2C30997
:1026B0008B4201D3CB01C01A524183098B4201D313
:1026C0008B01C01A524143098B4201D34B01C01AFE
:1026D000524103098B4201D30B01C01A5241C30876
:1026E0008B4201D3CB00C01A524183088B4201D3E5
:1026F0008B00C01A524143088B4201D34B00C01AD1
:102700005241411A00D20146524110467047FFE73C
:1027100001B5002000F006F802BDC0460029F7D040
:1027200076E770477047C04610B50023002802D0F6
:1027300000F004F8431C180010BDC0464142084098
:102740001C2101231B04984201D3000C10391B0AE1
:10275000984201D3000A08391B09984201D30009A5
:10276000043902A2105C401A7047C0461B1C1D1D94
:102770001E1E1E1E1F1F1F1F1F1F1F1F70B500269E
:102780000C4D0D4C641BA410A64209D1002600F08C
:1027900029F80A4D0A4C641BA410A64205D170BD4D
:1027A000B300EB5898470136EEE7B300EB58984773
:1027B0000136F2E7F0270000F0270000F0270000C4
:1027C000F427000003000000130000002E2E2F68E5
:1027D000706C2F6569632F68706C5F6569632E6329
:1027E00000000000F8B5C046F8BC08BC9E46704723
:1027F00029210000F8B5C046F8BC08BC9E467047C9
:04280000FD200000B7
:0400000300002000D9
:00000001FF
