:100000003020002001010000FD000000FD00000084
:1000100000000000000000000000000000000000E0
:10002000000000000000000000000000FD000000D3
:100030000000000000000000FD000000FD000000C6
:10004000FD000000FD000000FD000000FD000000BC
:1000500071020000FD000000FD000000FD00000036
:10006000FD000000FD000000FD000000FD0000009C
:10007000FD000000FD000000FD000000FD0000008C
:10008000FD000000FD000000FD000000FD0000007C
:10009000FD000000FD000000FD000000FD0000006C
:1000A000FD000000FD000000FD000000FD0000005C
:1000B0000000000010B5064C2378002B07D1054B3B
:1000C000002B02D0044800E000BF0123237010BDC4
:1000D0000000002000000000B8070000044B10B52D
:1000E000002B03D00349044800E000BF10BDC04608
:1000F0000000000004000020B8070000FEE7000038
:100100002148224970B50023884235D10021204B77
:10011000204A934235D3FF221F4B032193431F4AAA
:100120000C2593600222082430261D4B1D485A627C
:10013000C3788B431343C370C378AB432343C3706B
:10014000194B987BB0430600202030439873987B6E
:10015000A84304439C73987B884302439A7380238B
:10016000124A51680B435360114B9847114B984703
:10017000FEE7C458043314600F4CCA18A242F8D3E7
:10018000C4E702C3C5E7C046B8070000000000206E
:10019000000000202C0000200000000000ED00E026
:1001A000FC70004100500041004800410040004107
:1001B000310700006104000000000020024A53786B
:1001C000DB09FCD17047C0460018004070B5194CDF
:1001D000194D0600A847A84723789B0703D5A847D1
:1001E00000232370A847A84701232370A847802332
:1001F00062691B0213436361E369104A1340E361C0
:10020000A023E269DB051343E361A84702232278B8
:100210000B491343237010230A4ACB67BFF34F8F58
:10022000BFF36F8FC021490053501360064B00206D
:100230001E6070BD00180040BD010000FFFFFF8F71
:1002400004E100E000E100E01C0000200F2805D0E0
:100250000D20404270479A601A6105E08022034BEE
:1002600012020029F7D0DA600020F3E700180040FE
:10027000F7B5224D22492B69EA6801261340019304
:10028000019BD7222B611F4B76421868431E984171
:100290001D4BC0B29847019B002B18D1F7BD1B4BDB
:1002A000012000229C46674683185B10D9B2DB0010
:1002B000DB5DA3421CD018DA0131CAB29042F2D2FF
:1002C000731C16D10122A240019B93430193019814
:1002D0000F4B9847013844B2631CE0D12B69EA68A0
:1002E00013400193019B2B61D5E70139C8B2E5E7C3
:1002F0000F26044B30001B689847E3E700180040C6
:10030000800700001C000020AB03000078070000FD
:10031000DD060000044B10B51C68044B9847044BE5
:1003200001002000984710BD200000208903000034
:10033000A5030000064B1A7AD2B21A725A7AD2B2C8
:100340005A729A7AD2B29A72DA7AD2B2DA72704762
:1003500000040040074B10B55A685A60064B984796
:10036000064B98470820064CA047064B9847F720B5
:10037000A04710BD0040004135030000B503000058
:1003800005040000F503000003006420584310B585
:10039000034B0230032198470A23584310BDC0463F
:1003A000C50500000139FDD87047002800D100BE06
:1003B000704700000D4B1A6A196A1201890F8807ED
:1003C0000B49120D0143100401431962022198697F
:1003D000014399611F210A401A770822D968114206
:1003E000FCD08022196A0A431A6270470008004054
:1003F000020300000221024A93698B439361704714
:1004000000080040C30709D58022054B52009A60BE
:100410005A78D209FCD1832252025A607047C046F2
:10042000000C004070B580250424ED05044BC82065
:100430009847044B013C1D60002CF7D170BDC046AD
:10044000150300009C000060BFF34F8F0423034A94
:1004500011690B43136130BF7047C04600ED00E0E7
:1004600010B5064B9847064B06490F209847802247
:10047000054BD2051A60054B9847FCE7B90500000B
:100480008105000025040000980000604904000078
:10049000C02180200E4B0F4AC905000270B548608C
:1004A0009A620D4A04249A621A0048604F32157805
:1004B00037332C431470886101211078884301433D
:1004C00011700F211A780A401A70044B984770BDBA
:1004D0000044004100800240000002C05D050000B1
:1004E00010B50C4B9847C022D205130080218833E9
:1004F000C9051960084B094C18009432A8300160F6
:10050000046011600121DE331A788A431A70044BAB
:10051000984710BD5503000000440041004000C052
:1005200091040000F8B5012300221E00FF270A4DA8
:100530006C68934208D39918491005D1844204D1BC
:100540002B68002B00D09847F8BD844201D33B00B4
:10055000EFE73200EDE7C046240000200122054B02
:10056000524210B55A60002203481A60034B984764
:1005700010BDC0462400002025050000CD0100006C
:100580000B4B10B55A6882420DD11960002908D171
:100590001000084B984710BD1A68002A05D1196051
:1005A00058600121F5E70029F6D10D204042F2E71D
:1005B000240000204D02000010B5014B984710BDEB
:1005C000E1040000002243088B4274D303098B42EC
:1005D0005FD3030A8B4244D3030B8B4228D3030C13
:1005E0008B420DD3FF22090212BA030C8B4202D3B5
:1005F0001212090265D0030B8B4219D300E0090ADD
:10060000C30B8B4201D3CB03C01A5241830B8B42E5
:1006100001D38B03C01A5241430B8B4201D34B03CE
:10062000C01A5241030B8B4201D30B03C01A524133
:10063000C30A8B4201D3CB02C01A5241830A8B42B8
:1006400001D38B02C01A5241430A8B4201D34B02A1
:10065000C01A5241030A8B4201D30B02C01A524105
:10066000CDD2C3098B4201D3CB01C01A52418309B9
:100670008B4201D38B01C01A524143098B4201D3F3
:100680004B01C01A524103098B4201D30B01C01A1E
:100690005241C3088B4201D3CB00C01A5241830898
:1006A0008B4201D38B00C01A524143088B4201D3C5
:1006B0004B00C01A5241411A00D201465241104625
:1006C0007047FFE701B5002000F006F802BDC04604
:1006D0000029F7D076E770477047C04610B5002371
:1006E000002802D000F004F8431C180010BDC046DA
:1006F000414208401C2101231B04984201D3000CF5
:1007000010391B0A984201D3000A08391B09984284
:1007100001D30009043902A2105C401A7047C04698
:100720001B1C1D1D1E1E1E1E1F1F1F1F1F1F1F1FE8
:1007300070B500260C4D0D4C641BA410A64209D1C7
:10074000002600F029F80A4D0A4C641BA410A642AA
:1007500005D170BDB300EB5898470136EEE7B30002
:10076000EB5898470136F2E7A4070000A407000001
:10077000A4070000A80700000F0000000F00000001
:100780002E2E2F68706C2F6569632F68706C5F6503
:1007900069632E6300000000F8B5C046F8BC08BCD1
:1007A0009E467047DD000000F8B5C046F8BC08BCA6
:0807B0009E467047B5000000F1
:00000001FF
