:100000003020002055010000510100005101000086
:1000100000000000000000000000000000000000E0
:10002000000000000000000000000000510100007E
:10003000000000000000000051010000510100001C
:100040005101000051010000510100005101000068
:10005000C5020000510100005101000051010000E3
:100060005101000051010000510100005101000048
:100070005101000051010000510100005101000038
:100080005101000051010000510100005101000028
:100090005101000051010000510100005101000018
:1000A0005101000051010000510100005101000008
:1000B0000000000010B5064C2378002B07D1054B3B
:1000C000002B02D0044800E000BF0123237010BDC4
:1000D0000000002000000000EC060000044B10B5FA
:1000E000002B03D00349044800E000BF10BDC04608
:1000F0000000000004000020EC060000024B034A50
:100100005A6005221A60704710E000E0FFFFFF0010
:1001100070B580250B0E0C4A0C4CD8B26D0201381C
:10012000C0B2FF280AD118061B1A59188023516043
:100130005B02916011681942FCD070BD54609460FC
:1001400016682E42FCD0EAE710E000E0FFFFFF0057
:10015000FEE700002148224970B50023884235D1CE
:100160000021204B204A934235D3FF221F4B03210D
:1001700093431F4A0C2593600222082430261D4B0E
:100180001D485A62C3788B431343C370C378AB4393
:100190002343C370194B987BB043060020203043A3
:1001A0009873987BA84304439C73987B88430243CD
:1001B0009A738023124A51680B435360114B98473E
:1001C000114B9847FEE7C458043314600F4CCA180B
:1001D000A242F8D3C4E702C3C5E7C046EC0600005C
:1001E00000000020000000202C0000200000000083
:1001F00000ED00E0FC70004100500041004800416B
:100200000040004165060000D90400000000002005
:10021000024A5378DB09FCD17047C0460018004001
:1002200070B5194C194D0600A847A84723789B07BD
:1002300003D5A84700232370A847A84701232370AC
:10024000A847802362691B0213436361E369104A74
:100250001340E361A023E269DB051343E361A84790
:10026000022322780B491343237010230A4ACB67D9
:10027000BFF34F8FBFF36F8FC021490053501360FE
:10028000064B00201E6070BD0018004011020000E7
:10029000FFFFFF8F04E100E000E100E01C00002010
:1002A0000F2805D00D20404270479A601A6105E082
:1002B0008022034B12020029F7D0DA600020F3E716
:1002C00000180040F7B5224D22492B69EA68012643
:1002D00013400193019BD7222B611F4B7642186874
:1002E000431E98411D4BC0B29847019B002B18D16B
:1002F000F7BD1B4B012000229C46674683185B100C
:10030000D9B2DB00DB5DA3421CD018DA0131CAB2DE
:100310009042F2D2731C16D10122A240019B93435A
:10032000019301980F4B9847013844B2631CE0D108
:100330002B69EA6813400193019B2B61D5E70139D2
:10034000C8B2E5E70F26044B30001B689847E3E787
:1003500000180040B40600001C000020F903000053
:10036000AC0600001106000010B5024B1860024BED
:10037000984710BD20000020FD000000044B10B580
:100380001C68044B9847044B01002000984710BD9F
:1003900020000020F103000011010000064B1A7A32
:1003A000D2B21A725A7AD2B25A729A7AD2B29A7275
:1003B000DA7AD2B2DA72704700040040074B10B507
:1003C0005A685A60064B9847064B98470820064CD7
:1003D000A047064B9847F720A04710BD00400041BA
:1003E0009D030000010400005104000041040000CE
:1003F000FA239B0058437047002800D100BE704785
:100400000D4B1A6A196A1201890F88070B49120DE0
:100410000143100401431962022198690143996163
:100420001F210A401A770822D9681142FCD0802285
:10043000196A0A431A62704700080040020300006C
:100440000221024A93698B43936170470008004080
:10045000C30709D58022054B52009A605A78D20909
:10046000FCD1832252025A607047C046000C004003
:1004700070B580250424ED05044BC8209847044B33
:10048000013C1D60002CF7D170BDC0467D0300000B
:100490009C000060C0238022DB0512025A600B4BD7
:1004A0000B4A04209A620B4A9A621A004F32117862
:1004B0003733814311700121107888430143117053
:1004C0000F211A780A401A707047C0460044004154
:1004D00000800240000002C010B5094B9847094B4C
:1004E0009847094B984709490F20094B9847042121
:1004F000084ABFF34F8F13690B43136130BFF8E70E
:100500000506000095040000A90500007104000024
:10051000CD05000000ED00E010B50248024B984701
:1005200010BDC04610E000E06903000010B50C4BA0
:100530009847C022D205130080218833C90519606D
:10054000084B094C18009832A83001600460116013
:100550000121DE331A788A431A70044B984710BD84
:10056000BD03000000440041004000C01905000028
:10057000F8B5012300221E00FF270A4D6C68934244
:1005800008D39918491005D1844204D12B68002B57
:1005900000D09847F8BD844201D33B00EFE732001A
:1005A000EDE7C046240000200122054B524210B561
:1005B0005A60002203481A60034B984710BDC0469A
:1005C0002400002071050000210200000B4B10B533
:1005D0005A6882420DD11960002908D11000084BD9
:1005E000984710BD1A68002A05D11960586001218A
:1005F000F5E70029F6D10D204042F2E72400002063
:10060000A102000010B5014B984710BD2D05000058
:1006100010B50023002802D000F004F8431C180095
:1006200010BDC046414208401C2101231B049842D2
:1006300001D3000C10391B0A984201D3000A083973
:100640001B09984201D30009043902A2105C401A28
:100650007047C0461B1C1D1D1E1E1E1E1F1F1F1F78
:100660001F1F1F1F70B500260C4D0D4C641BA410DE
:10067000A64209D1002600F029F80A4D0A4C641B55
:10068000A410A64205D170BDB300EB5898470136BF
:10069000EEE7B300EB5898470136F2E7D8060000C2
:1006A000D8060000D8060000DC0600000F0000009D
:1006B0000F0000002E2E2F68706C2F6569632F6865
:1006C000706C5F6569632E6300000000F8B5C0467A
:1006D000F8BC08BC9E467047DD000000F8B5C04677
:0C06E000F8BC08BC9E467047B500000046
:00000001FF
