:102000002020002055210000512100005121000016
:1020100000000000000000000000000000000000C0
:10202000000000000000000000000000512100003E
:1020300000000000000000005121000051210000BC
:1020400051210000512100005121000051210000C8
:1020500051210000512100005121000051210000B8
:1020600051210000512100005121000051210000A8
:102070005121000051210000512100005121000098
:102080005121000051210000512100005121000088
:10209000512100000000000000000000512100005C
:1020A0005121000051210000512100005121000068
:1020B0000000000010B5064C2378002B07D1054B1B
:1020C000002B02D0044800E000BF0123237010BDA4
:1020D000000000200000000024240000044B10B584
:1020E000002B03D00349044800E000BF10BDC046E8
:1020F000000000000400002024240000024B034ADA
:102100005A6005221A60704710E000E0FFFFFF00F0
:1021100070B580250B0E0C4A0C4CD8B26D020138FC
:10212000C0B2FF280AD118061B1A59188023516023
:102130005B02916011681942FCD070BD54609460DC
:1021400016682E42FCD0EAE710E000E0FFFFFF0037
:10215000FEE700002148224970B50023884235D1AE
:102160000021204B204A934235D3FF221F4B0321ED
:1021700093431F4A0C2593600222082430261D4BEE
:102180001D485A62C3788B431343C370C378AB4373
:102190002343C370194B987BB04306002020304383
:1021A0009873987BA84304439C73987B88430243AD
:1021B0009A738023124A51680B435360114B98471E
:1021C000114B9847FEE7C458043314600F4CCA18EB
:1021D000A242F8D3C4E702C3C5E7C04624240000E6
:1021E000000000200000002020000020002000004F
:1021F00000ED00E0FC70004100500041004800414B
:1022000000400041BD230000292300000000002001
:1022100010B5024B1860024B984710BD1C000020FF
:10222000FD200000044B10B51C68044B9847044B7C
:1022300001002000984710BD1C00002099220000DA
:1022400011210000064B1A7AD2B21A725A7AD2B20F
:102250005A729A7AD2B29A72DA7AD2B2DA72704733
:1022600000040040074B10B55A685A60064B984767
:10227000064B98470820064CA047064B9847F72086
:10228000A04710BD0040004145220000A1220000EF
:10229000F1220000E1220000FA239B00584370471E
:1022A0000D4B1A6A196A1201890F88070B49120D22
:1022B00001431004014319620221986901439961A5
:1022C0001F210A401A770822D9681142FCD08022C7
:1022D000196A0A431A6270470008004002030000AE
:1022E0000221024A93698B439361704700080040C2
:1022F000C30709D58022054B52009A605A78D2094B
:10230000FCD1832252025A607047C046000C004044
:102310001F22012302409340C0224009D205C00180
:102320008018C3617047000080B582B000AF084BD1
:10233000984705237B607B6805337B60FA235B004D
:102340001800044B98471120034B9847F6E7C04606
:10235000B1230000252200001123000010B502481F
:10236000024B984710BDC04610E000E0112200006B
:1023700010B50B4B9847C02280218020094BD20515
:102380008902C005916098620748986251610121F5
:1023900051331A788A431A70044B984710BDC046CF
:1023A0006522000000440041020000C05D230000DF
:1023B00010B5014B984710BD7123000070B5002681
:1023C0000C4D0D4C641BA410A64209D1002600F050
:1023D00019F80A4D0A4C641BA410A64205D170BD21
:1023E000B300EB5898470136EEE7B300EB58984737
:1023F0000136F2E710240000102400001024000031
:1024000014240000F8B5C046F8BC08BC9E467047CE
:10241000DD200000F8B5C046F8BC08BC9E467047F9
:04242000B5200000E3
:0400000300002000D9
:00000001FF
