:102000002820002001210000FD200000FD2000000C
:1020100000000000000000000000000000000000C0
:10202000000000000000000000000000FD20000093
:102030000000000000000000FD200000FD20000066
:10204000FD200000FD200000FD200000FD2000001C
:1020500061220000FD200000FD200000FD200000A6
:10206000FD200000FD200000FD200000FD200000FC
:10207000FD200000FD200000FD200000FD200000EC
:10208000FD200000FD200000FD200000FD200000DC
:10209000FD2000000000000000000000FD20000006
:1020A000FD200000FD200000FD200000FD200000BC
:1020B0000000000010B5064C2378002B07D1054B1B
:1020C000002B02D0044800E000BF0123237010BDA4
:1020D000000000200000000018250000044B10B58F
:1020E000002B03D00349044800E000BF10BDC046E8
:1020F000000000000400002018250000FEE700009A
:102100002148224970B50023884235D10021204B57
:10211000204A934235D3FF221F4B032193431F4A8A
:102120000C2593600222082430261D4B1D485A625C
:10213000C3788B431343C370C378AB432343C3704B
:10214000194B987BB0430600202030439873987B4E
:10215000A84304439C73987B884302439A7380236B
:10216000124A51680B435360114B9847114B9847E3
:10217000FEE7C458043314600F4CCA18A242F8D3C7
:10218000C4E702C3C5E7C0461825000000000020D0
:1021900000000020280000200020000000ED00E0EA
:1021A000FC700041005000410048004100400041E7
:1021B000992400006D23000000000020024A53789B
:1021C000DB09FCD17047C04600180040F8B5164C3A
:1021D000164D0700A847A84723789B0703D5A847B3
:1021E00000232370A847A84701232370A84708238A
:1021F000636180230026DB01A361E661A847022317
:1022000022780B491343237010230A4ACB67BFF38C
:102210004F8FBFF36F8FC021490053501360064B9F
:1022200030001F60F8BDC04600180040BD2100000E
:1022300004E100E000E100E01C000020132805D0CC
:102240000D20404270479A601A6104E0034B082257
:102250000029F8D0DA600020F4E7C04600180040FA
:1022600013B50A4B0A4C1A69D96820680A400192D2
:10227000019A08491A61431E9841C522C0B2064B13
:10228000984723681320984713BDC04600180040A4
:102290001C000020E0240000F1220000064B1A7A06
:1022A000D2B21A725A7AD2B25A729A7AD2B29A7256
:1022B000DA7AD2B2DA72704700040040074B10B5E8
:1022C0005A685A60064B9847064B98470820064CB8
:1022D000A047064B9847F720A04710BD004000419B
:1022E0009D220000F922000049230000392300004C
:1022F000002800D100BE70470D4B1A6A196A1201FE
:10230000890F88070B49120D01431004014319621C
:1023100002219869014399611F210A401A77082216
:10232000D9681142FCD08022196A0A431A627047A8
:1023300000080040020300000221024A93698B4317
:102340009361704700080040C30708D58022044B02
:1023500052009A605A78D209FCD1024A5A607047FA
:10236000000C00400006210070470000034B10B530
:10237000984703491320034B9847FEE78D2400003C
:102380006923000055240000104B114A10B55A80F3
:10239000C0238022DB0512035A600E4B0E4A042034
:1023A0009A620E4A9A621A00533211783933814385
:1023B0001170012110788843014311700F211A78A0
:1023C0000A401A70064B984710BDC046000C0040EA
:1023D000054000000044004100000240080002C027
:1023E0003124000010B5024B9847024B984710BDAE
:1023F000BD22000089230000F8B5012300221E0041
:10240000FF270A4D6C68934208D39918491005D1EB
:10241000844204D12B68002B00D09847F8BD844239
:1024200001D33B00EFE73200EDE7C046200000207B
:102430000122054B524210B55A60002203481A602F
:10244000034B984710BDC04620000020F923000030
:10245000CD2100000B4B10B55A6882420DD1196096
:10246000002908D11000084B984710BD1A68002AAF
:1024700005D1196058600121F5E70029F6D10D203A
:102480004042F2E7200000203D22000010B5014B41
:10249000984710BDE523000070B500260C4D0D4C8B
:1024A000641BA410A64209D1002600F025F80A4DAD
:1024B0000A4C641BA410A64205D170BDB300EB58B2
:1024C00098470136EEE7B300EB5898470136F2E73C
:1024D0000425000004250000042500000825000054
:1024E0002E2E2F68706C2F6569632F68706C5F6586
:1024F00069632E6300000000F8B5C046F8BC08BC54
:102500009E467047DD200000F8B5C046F8BC08BC08
:082510009E467047B520000053
:0400000300002000D9
:00000001FF
