:100000002020002001010000FD000000FD00000094
:1000100000000000000000000000000000000000E0
:10002000000000000000000000000000FD000000D3
:100030000000000000000000FD000000FD000000C6
:10004000FD000000FD000000FD000000FD000000BC
:10005000FD000000FD000000FD000000FD000000AC
:10006000FD000000FD000000FD000000FD0000009C
:10007000FD000000FD000000FD000000FD0000008C
:10008000FD000000FD000000FD000000FD0000007C
:10009000FD000000FD000000FD000000FD0000006C
:1000A000FD000000FD000000FD000000FD0000005C
:1000B0000000000010B5064C2378002B07D1054B3B
:1000C000002B02D0044800E000BF0123237010BDC4
:1000D000000000200000000020030000044B10B5C9
:1000E000002B03D00349044800E000BF10BDC04608
:1000F000000000000400002020030000FEE70000D4
:100100002148224970B50023884235D10021204B77
:10011000204A934235D3FF221F4B032193431F4AAA
:100120000C2593600222082430261D4B1D485A627C
:10013000C3788B431343C370C378AB432343C3706B
:10014000194B987BB0430600202030439873987B6E
:10015000A84304439C73987B884302439A7380238B
:10016000124A51680B435360114B9847114B984703
:10017000FEE7C458043314600F4CCA18A242F8D3E7
:10018000C4E702C3C5E7C04620030000000000200A
:10019000000000201C0000200000000000ED00E036
:1001A000FC70004100500041004800410040004107
:1001B000B90200008102000000000020064B1A7AFC
:1001C000D2B21A725A7AD2B25A729A7AD2B29A7257
:1001D000DA7AD2B2DA72704700040040074B10B5E9
:1001E0005A685A60064B9847064B98470820064CB9
:1001F000A047064B9847F720A04710BD004000419C
:10020000BD01000011020000610200005102000067
:100210000D4B1A6A196A1201890F88070B49120DD2
:100220000143100401431962022198690143996155
:100230001F210A401A770822D9681142FCD0802277
:10024000196A0A431A62704700080040020300005E
:100250000221024A93698B43936170470008004072
:10026000C30709D58022054B52009A605A78D209FB
:10027000FCD1832252025A607047C046000C0040F5
:1002800080B582B000AF01237B60044B9847022306
:100290007B6000231800BD4602B080BDAD020000A7
:1002A00010B5014B984710BDDD01000010B5014BA2
:1002B000984710BDA102000070B500260C4D0D4CF2
:1002C000641BA410A64209D1002600F019F80A4DBB
:1002D0000A4C641BA410A64205D170BDB300EB58B4
:1002E00098470136EEE7B300EB5898470136F2E73E
:1002F0000C0300000C0300000C03000010030000BE
:10030000F8B5C046F8BC08BC9E467047DD0000004A
:10031000F8B5C046F8BC08BC9E467047B500000062
:00000001FF
